{
  "contractName": "Demo",
  "abi": [
    {
      "anonymous": false,
      "inputs": [
        {
          "indexed": false,
          "internalType": "string",
          "name": "message",
          "type": "string"
        }
      ],
      "name": "Echo",
      "type": "event"
    },
    {
      "inputs": [
        {
          "internalType": "string",
          "name": "message",
          "type": "string"
        }
      ],
      "name": "echo",
      "outputs": [],
      "stateMutability": "nonpayable",
      "type": "function"
    }
  ],
  "bytecode": "0x608060405234801561001057600080fd5b506101fd806100206000396000f3fe608060405234801561001057600080fd5b506004361061002b5760003560e01c8063f15da72914610030575b600080fd5b61004a600480360381019061004591906100f8565b61004c565b005b7fdb84d7c006c4de68f9c0bd50b8b81ed31f29ebeec325c872d36445c6565d757c828260405161007d9291906101a3565b60405180910390a15050565b600080fd5b600080fd5b600080fd5b600080fd5b600080fd5b60008083601f8401126100b8576100b7610093565b5b8235905067ffffffffffffffff8111156100d5576100d4610098565b5b6020830191508360018202830111156100f1576100f061009d565b5b9250929050565b6000806020838503121561010f5761010e610089565b5b600083013567ffffffffffffffff81111561012d5761012c61008e565b5b610139858286016100a2565b92509250509250929050565b600082825260208201905092915050565b82818337600083830152505050565b6000601f19601f8301169050919050565b60006101828385610145565b935061018f838584610156565b61019883610165565b840190509392505050565b600060208201905081810360008301526101be818486610176565b9050939250505056fea2646970667358221220cc165b23f1857333ecadab3826821a3f4b2c90e7692fe07ad03bd016ddeea81f64736f6c63430008110033",
  "immutableReferences": {},
  "source": "// SPDX-License-Identifier: GPL-3.0\r\n\r\npragma solidity >=0.5.8;\r\n\r\ncontract Demo {\r\n    event Echo(string message);\r\n\r\n    function echo(string calldata message) external {\r\n        emit Echo(message);\r\n    }\r\n}",
  "sourcePath": "D:\\VS Code\\Code Eater\\Truffle Course\\contracts\\Demo.sol",
  "compiler": {
    "name": "solc",
    "version": "0.8.17+commit.8df45f5f.Emscripten.clang"
  },
  "schemaVersion": "3.4.15",
  "updatedAt": "2023-09-07T10:40:29.874Z",
  "networkType": "ethereum",
  "devdoc": {
    "kind": "dev",
    "methods": {},
    "version": 1
  },
  "userdoc": {
    "kind": "user",
    "methods": {},
    "version": 1
  }
}