{
  "contractName": "Identity",
  "abi": [
    {
      "inputs": [],
      "stateMutability": "nonpayable",
      "type": "constructor"
    },
    {
      "inputs": [],
      "name": "getName",
      "outputs": [
        {
          "internalType": "string",
          "name": "",
          "type": "string"
        }
      ],
      "stateMutability": "view",
      "type": "function"
    },
    {
      "inputs": [],
      "name": "getAge",
      "outputs": [
        {
          "internalType": "uint256",
          "name": "",
          "type": "uint256"
        }
      ],
      "stateMutability": "view",
      "type": "function"
    }
  ],
  "bytecode": "0x608060405234801561001057600080fd5b506040518060400160405280600681526020017f56697368616c00000000000000000000000000000000000000000000000000008152506000908051906020019061005c92919061006a565b50601560018190555061016d565b8280546100769061013c565b90600052602060002090601f01602090048101928261009857600085556100df565b82601f106100b157805160ff19168380011785556100df565b828001600101855582156100df579182015b828111156100de5782518255916020019190600101906100c3565b5b5090506100ec91906100f0565b5090565b5b808211156101095760008160009055506001016100f1565b5090565b7f4e487b7100000000000000000000000000000000000000000000000000000000600052602260045260246000fd5b6000600282049050600182168061015457607f821691505b6020821081036101675761016661010d565b5b50919050565b6102988061017c6000396000f3fe608060405234801561001057600080fd5b50600436106100365760003560e01c806317d7de7c1461003b578063967e6e6514610059575b600080fd5b610043610077565b60405161005091906101ac565b60405180910390f35b610061610109565b60405161006e91906101e7565b60405180910390f35b60606000805461008690610231565b80601f01602080910402602001604051908101604052809291908181526020018280546100b290610231565b80156100ff5780601f106100d4576101008083540402835291602001916100ff565b820191906000526020600020905b8154815290600101906020018083116100e257829003601f168201915b5050505050905090565b6000600154905090565b600081519050919050565b600082825260208201905092915050565b60005b8381101561014d578082015181840152602081019050610132565b8381111561015c576000848401525b50505050565b6000601f19601f8301169050919050565b600061017e82610113565b610188818561011e565b935061019881856020860161012f565b6101a181610162565b840191505092915050565b600060208201905081810360008301526101c68184610173565b905092915050565b6000819050919050565b6101e1816101ce565b82525050565b60006020820190506101fc60008301846101d8565b92915050565b7f4e487b7100000000000000000000000000000000000000000000000000000000600052602260045260246000fd5b6000600282049050600182168061024957607f821691505b60208210810361025c5761025b610202565b5b5091905056fea2646970667358221220f3be6d33b4e92a586a53700f5657864892fea91dc57ac9eb82bac290ea88083964736f6c634300080d0033",
  "immutableReferences": {},
  "source": "// SPDX-License-Identifier: GPL 3.0\r\n\r\npragma solidity >= 0.5.0 < 0.9.0;\r\n\r\ncontract Identity {\r\n\r\n    string name;\r\n    uint age;\r\n\r\n    constructor() {\r\n\r\n        name = \"Vishal\";\r\n        age = 21;\r\n    }\r\n\r\n    function getName () view public returns (string memory) {\r\n        return name;\r\n    }\r\n\r\n    function getAge () view public returns (uint) {\r\n        return age;\r\n    }\r\n}",
  "sourcePath": "D:\\VS Code\\Code Eater\\Truffle Course\\contracts\\identity.sol",
  "compiler": {
    "name": "solc",
    "version": "0.8.13+commit.abaa5c0e.Emscripten.clang"
  },
  "schemaVersion": "3.4.15",
  "updatedAt": "2023-09-02T07:47:29.403Z",
  "devdoc": {
    "kind": "dev",
    "methods": {},
    "version": 1
  },
  "userdoc": {
    "kind": "user",
    "methods": {},
    "version": 1
  }
}